:020000040000fa
:080000000002040000000000f2
:020000040000fa
:0400080042030000af
:020000040000fa
:04000c0042030000ab
:020000040000fa
:0400100042030000a7
:020000040000fa
:0400140042030000a3
:020000040000fa
:04001800420300009f
:020000040000fa
:04001c00420300009b
:020000040000fa
:040020004203000097
:020000040000fa
:040024004203000093
:020000040000fa
:04002800420300008f
:020000040000fa
:04002c00420300008b
:020000040000fa
:040030004203000087
:020000040000fa
:040034003403000091
:020000040000fa
:04003800420300007f
:020000040000fa
:04003c00420300007b
:020000040000fa
:040040004203000077
:020000040000fa
:040044004203000073
:020000040000fa
:04004800d6020000dc
:020000040000fa
:04004c00420300006b
:020000040000fa
:040050004203000067
:020000040000fa
:040054004203000063
:020000040000fa
:04005800420300005f
:020000040000fa
:04005c00cc020000d2
:020000040000fa
:040060004203000057
:020000040000fa
:040064004203000053
:020000040000fa
:04006800420300004f
:020000040000fa
:04006c00420300004b
:020000040000fa
:04007000f602000094
:020000040000fa
:040074004203000043
:020000040000fa
:04007800420300003f
:020000040000fa
:04007c00420300003b
:020000040000fa
:040080004203000037
:020000040000fa
:040084004203000033
:020000040000fa
:04008800420300002f
:020000040000fa
:04008c00420300002b
:020000040000fa
:040090004203000027
:020000040000fa
:040094004203000023
:020000040000fa
:04009800420300001f
:020000040000fa
:04009c00420300001b
:020000040000fa
:0400a000e602000074
:020000040000fa
:0400a400ee02000068
:020000040000fa
:0400a800420300000f
:020000040000fa
:0400ac00420300000b
:020000040000fa
:0400b0004203000007
:020000040000fa
:0400b4004203000003
:020000040000fa
:0400b80042030000ff
:020000040000fa
:0400bc0042030000fb
:020000040000fa
:0400c00042030000f7
:020000040000fa
:0400c40042030000f3
:020000040000fa
:0400c80042030000ef
:020000040000fa
:0400cc0042030000eb
:020000040000fa
:0400d00042030000e7
:020000040000fa
:0400d40042030000e3
:020000040000fa
:0400d80042030000df
:020000040000fa
:0400dc0042030000db
:020000040000fa
:0400e00042030000d7
:020000040000fa
:0400e40042030000d3
:020000040000fa
:0400e80042030000cf
:020000040000fa
:0400ec0042030000cb
:020000040000fa
:0400f00042030000c7
:020000040000fa
:0400f40042030000c3
:020000040000fa
:0400f80042030000bf
:020000040000fa
:0400fc0042030000bb
:020000040000fa
:0401000042030000b6
:020000040000fa
:0401040042030000b2
:020000040000fa
:0401080042030000ae
:020000040000fa
:04010c0042030000aa
:020000040000fa
:0401100042030000a6
:020000040000fa
:0401140042030000a2
:020000040000fa
:04011800420300009e
:020000040000fa
:04011c00420300009a
:020000040000fa
:040120004203000096
:020000040000fa
:040124004203000092
:020000040000fa
:04012800420300008e
:020000040000fa
:04012c00420300008a
:020000040000fa
:040130004203000086
:020000040000fa
:040134004203000082
:020000040000fa
:04013800420300007e
:020000040000fa
:04013c00420300007a
:020000040000fa
:040140004203000076
:020000040000fa
:040144004203000072
:020000040000fa
:04014800420300006e
:020000040000fa
:04014c00420300006a
:020000040000fa
:040150004203000066
:020000040000fa
:040154004203000062
:020000040000fa
:04015800420300005e
:020000040000fa
:04015c00420300005a
:020000040000fa
:0402080042030000ad
:020000040000fa
:04020c0042030000a9
:020000040000fa
:0402100042030000a5
:020000040000fa
:0402140042030000a1
:020000040000fa
:04021800420300009d
:020000040000fa
:04021c004203000099
:020000040000fa
:040220004203000095
:020000040000fa
:040224004203000091
:020000040000fa
:04022800420300008d
:020000040000fa
:04022c004203000089
:020000040000fa
:040230004203000085
:020000040000fa
:040234004203000081
:020000040000fa
:04023800420300007d
:020000040000fa
:04023c004203000079
:020000040000fa
:040240004203000075
:020000040000fa
:040244004203000071
:020000040000fa
:04024800420300006d
:020000040000fa
:04024c004203000069
:020000040000fa
:040250004203000065
:020000040000fa
:040254004203000061
:020000040000fa
:04025800420300005d
:020000040000fa
:04025c004203000059
:020000040000fa
:040260004203000055
:020000040000fa
:040264004203000051
:020000040000fa
:04026800420300004d
:020000040000fa
:04026c004203000049
:020000040000fa
:040270004203000045
:020000040000fa
:040274004203000041
:020000040000fa
:04027800420300003d
:020000040000fa
:04027c004203000039
:020000040000fa
:040280004203000035
:020000040000fa
:040284004203000031
:020000040000fa
:04028800420300002d
:020000040000fa
:04028c004203000029
:020000040000fa
:040290004203000025
:020000040000fa
:040294004203000021
:020000040000fa
:04029800420300001d
:020000040000fa
:04029c004203000019
:020000040000fa
:0402a0004203000015
:020000040000fa
:0402a4004203000011
:020000040000fa
:0402a800420300000d
:020000040000fa
:0402ac004203000009
:020000040000fa
:0402b0004203000005
:020000040000fa
:0402b4004203000001
:020000040000fa
:0402b80042030000fd
:020000040000fa
:0402bc0042030000f9
:020000040000fa
:0402c00042030000f5
:020000040000fa
:0402c40042030000f1
:020000040000fa
:0402c80042030000ed
:020000040000fa
:0402cc0042030000e9
:020000040000fa
:0402d00042030000e5
:020000040000fa
:0402d40042030000e1
:020000040000fa
:0402d80042030000dd
:020000040000fa
:0402dc0042030000d9
:020000040000fa
:0402e00042030000d5
:020000040000fa
:0402e40042030000d1
:020000040000fa
:0402e80042030000cd
:020000040000fa
:0402ec0042030000c9
:020000040000fa
:0402f00042030000c5
:020000040000fa
:0402f40042030000c1
:020000040000fa
:0402f80042030000bd
:020000040000fa
:0402fc0042030000b9
:020000040000fa
:0403000042030000b4
:020000040000fa
:0403040042030000b0
:020000040000fa
:0403080042030000ac
:020000040000fa
:04030c0042030000a8
:020000040000fa
:0403100042030000a4
:020000040000fa
:0403140042030000a0
:020000040000fa
:04031800420300009c
:020000040000fa
:04031c004203000098
:020000040000fa
:040320004203000094
:020000040000fa
:040324004203000090
:020000040000fa
:04032800420300008c
:020000040000fa
:04032c004203000088
:020000040000fa
:040330004203000084
:020000040000fa
:040334004203000080
:020000040000fa
:04033800420300007c
:020000040000fa
:04033c004203000078
:020000040000fa
:040340004203000074
:020000040000fa
:040344004203000070
:020000040000fa
:04034800420300006c
:020000040000fa
:04034c004203000068
:020000040000fa
:040350004203000064
:020000040000fa
:040354004203000060
:020000040000fa
:04035800420300005c
:020000040000fa
:04035c004203000058
:020000040000fa
:100400000f8820000edf20000e0188000000000091
:10041000000020000000e000020032000001200087
:100420002002880014000700980007000000e00088
:1004300003003a00a09b21000100200002003700c9
:100440000000200001002000810f70000100320038
:1004500014000700000020000000e000020032004d
:100460000000020000000000aa1a020000000000c4
:100470000040da000000fe004440a900c003200054
:100480000000e0000300320000002000a00188000e
:100490004440a800000006008a1f78008b1f7800e7
:1004a0000000060091018800800478000000eb0045
:1004b0001a003700e284440032a0b4009905ba0063
:1004c000e284440032a0b4009906ba00e2844400f9
:1004d00032a0b4000006eb00476fde00fd07b2005b
:1004e000636ce10003003a00ebff07000000eb0043
:1004f0000a003700606ce10004003a00005deb0088
:100500008b05e900fdff3e00040037006168e10053
:10051000010032000086eb000b00070019c7ba008b
:100520001905ba000e04e00003003a000a00e000da
:10053000e0ff3a0000000600fe07b2009e018800be
:100540008a047800f5ff3700395dba008b05e900b1
:100550000c003200295dba008b05e900080032006a
:100560000c00e00003003a00e284440032a0b40032
:10057000f5ff370019ddba008b05e900faff3a00f4
:100580008904e800e184440032a0b40000000600c1
:1005900000000000000000000000fa0085a0a90093
:1005a0002023a9000080fa00004006000000fa00a5
:1005b0000828ef008500a9000821ef000621ef00c0
:1005c000000000000080fa00004006000000fa0071
:1005d00087c0a9000080fa00004006000000fa0071
:1005e00087e0a9000080fa0000400600809fbe005e
:1005f000829fbe000800fa003c23a800500880003b
:100600008000eb00008fbe00300880008000eb000f
:1006100020079800310798001e00be00c001dd00d1
:10062000020020002e009000be009000000071002b
:1006300081807100204088003140880011e1a900cc
:1006400013e1a9000821ef000621ef008640a90070
:100650003726a900000000000080fa004f01be000c
:100660004f00be00004006000000fa008460a900b0
:1006700005e1a9000021ef00000000000080fa0061
:10068000004006000040da000000fe000000050007
:1006900003f0a200889fbe008a9fbe008c1f7800d6
:1006a000f7000700fe0033006450e1004f00320005
:1006b0006420e1005200320003826c0007003b001e
:1006c0000905d0000306d000820f54000c065d001f
:1006d0000200390002003200890178000306780028
:1006e0008582550004003d000003fd008103fd00ec
:1006f0008502ea008b854200840f720002003b00f5
:1007000060001000e08018006011b8000005eb00e8
:100710007a28e1000a00390006007800c75ddd0094
:10072000f707b200878075002d00370082817100c5
:100730000a017800610560008180d1000080d3004b
:100740008502e900f9ff3b00060440008784480069
:1007500002003b0060041400e0841c000988a30030
:10076000070032008a81710082817100610164009a
:100770008904d1000884d3008b05e80017003700f6
:100780000978a30013003a000b00e00013003400c6
:100790008b05e9000804440089844c000a44740075
:1007a0000978a3000d003a000b00e00007003400b8
:1007b0008b05e9000804440089844c0001003a00dc
:1007c0000b0020000978a300f7ff32000001eb00c6
:1007d00002003700828171000a0178006d00070075
:1007e0000cf0a70001f0a000b60037006420e10083
:1007f00002003a00838f6c00b60033000801be008f
:100800000200be00af003700889fbe008a9fbe0076
:100810008c1f78009a000700a100330003866c004b
:100820006450e1002e0032006420e1003300320009
:100830006150e1002f0032006120e1003100320000
:1008400085855500eb07b000090020000804200052
:10085000050037000804440089844c000a00310078
:100860000603430087834b000001530081815b0036
:10087000f8ff33000203be000800a0000804440093
:1008800089844c00f6ff3900c639dd00830173000e
:1008900001003200130020008904d1000884d30035
:1008a0000998a300050032000800a7000300a0007b
:1008b0008904d1000884d3008b05e8008904d100a5
:1008c0000884d3000001eb000281d2003100070050
:1008d00001f0a1000cf0a70001f0a00079003700a2
:1008e0006420e1007b0032000801be000200be006f
:1008f000f7ff37006120e100760032006000b800a9
:10090000f3ff37000000200001f82700f0ff370058
:1009100014002000a6003700f4ff2f00a4003700c9
:100920000001be00410007000470a70003f0a10011
:1009300003f8a30013003a006509b100100032006b
:10094000090035006928e100020035000100280097
:100950000000050000004000818048008502e90099
:10096000fcff3a0000000600f88f42000500350049
:100970008100d1000080d3008502e800fcff3a002e
:10098000000006008000eb00000005006011b800c8
:10099000a200370081002000618055000b003d005f
:1009a0000b00200061fe2f000100e1001d0034005b
:1009b00082817100610164008904d1000884d30040
:1009c0000000e800faff3a007100200061006400b6
:1009d000030070000200600009003200610444005e
:1009e000e0844c000988a500050032008b05e80072
:1009f0006808e10002003a008904d1000884d300ad
:100a0000f20f20000258e10005003d00c75ddd0047
:100a1000f907b20089807500080078000000060020
:100a20000bf827008b00780000000500c70ade00e5
:100a3000f107b200f50fb20008003200e1cf42002a
:100a4000020032000170a00024000500810f700038
:100a5000010032000408050044000500810f700009
:100a600002003a00140005008502e9000000400081
:100a700081c04800fcff3b000170a000240005007d
:100a80000004be00e9ff07000003be000405be002d
:100a90000200be00e5ff0700844f7500000006005d
:100aa0000200be006450e100050036006420e10051
:100ab000020036000968a30001003a000800be00e9
:100ac0000160a0004f0678004f05be004f04be0035
:100ad00000000600f0ff2f00f1ff2700f9ff3700ac
:100ae000889fbe008a9fbe008c1f7800e4ff07002d
:100af000ebff330003866c006450e10024003200f9
:100b00006420e100270032006150e1002200320041
:100b10006120e100210032008b854200eb07b1002b
:100b20000134b800003ab8000804420089844a0041
:100b3000013ab8000030b8008880400009014a003e
:100b40000400330000004000818048000201490099
:100b50008b05e900c909dd00830170000100320046
:100b600013002000c814de004814dd004709de0031
:100b70001200b200c808de000884700085ff07007c
:100b800001f0a1000cf0a70001f0a000cdff37009c
:100b90006120e100cfff32000801be000200be006c
:100ba000f7ff37006150e100fcff3a00c9ff370052
:100bb000889fbe008a9fbe00841f7800b0ff070098
:100bc0004f00780011003300f0ff2f00838f6c007e
:100bd00006003b00040565000a00a7000800370076
:100be00009f0a6001000200008003700820f540012
:100bf000838f5c00030039001000200001003e00dc
:100c00000000200009f0a7000000ea004f05be0028
:100c10004f04be000000e00000000600889fbe00f8
:100c20008a9fbe000082700004027100048271007d
:100c3000260032000004be000200be006011b800b1
:100c40006b092000950220000182cf000a003900c4
:100c50000541b1000082cf00070039000541b10015
:100c60000982cf00040039000541b1000882cf009d
:100c7000010039000541b100054252001200320066
:100c80000a003b0082817100610164008100d10093
:100c90000080d3008984d3000884d3008b05e8004a
:100ca0000442e800f7ff3a00070037000804440058
:100cb00089844c0000004800818048008b05e900d1
:100cc0000442e900f9ff3a0032ff07004f05be0079
:100cd0004f04be000000060080007800010178008b
:100ce0003104e000fdff3a00000051000000060062
:100cf000881f78000204780008017800620307006a
:100d0000080040004f047800000006000000fa00d0
:100d1000881f780000047800ea8157003fb99700e7
:100d20008800780080672000070007000000e000ce
:100d3000020035008040eb00017478004f04780019
:100d40000080fa00000006006200fa00889fbe00e2
:100d50008a1f78000005780081047800020478007a
:100d60008300780080f92f000f0040003f04070047
:100d70009a979f00a9979f000000eb00b09f9f00eb
:100d80001885fb008a04fb000a05ea004f55de00c7
:100d900050022000808f54000d003200e10f5500fa
:100da0000b003a000a017800880078002f90970025
:100db0009f91970003000100a0979f000000e000b2
:100dc0008e0032003f9897000000e800b09f9f001f
:100dd0000a04440050022000808f540004003200b6
:100de0000900e000e6ff3a003f98970084003700d2
:100df0000000eb00909f9f00809f9f00f0979f0056
:100e0000e0979f00d0979f00c0979f000700370092
:100e1000818720000100500000004000c1862000b2
:100e200061007800df98970001007000d09f9f005c
:100e30008804780009047800384578008a00fb00af
:100e400080872000170307000000e000f0ff3a0051
:100e5000a1c2b300814f55000e003a00cf88970021
:100e60000180e900c08f9f0010007800c09f9f00a4
:100e70000000e00005003d000000ea00c09f9f0068
:100e80005f9897000020a000d09f9f000904e80011
:100e90000f003700c09f9f000000eb0005003700e7
:100ea000f2ff2700820f5000020032006a01b900f1
:100eb000028040000904780088047800b900fb0033
:100ec0000103b100e98f5000f5ff3600c09f9f007d
:100ed000e0c2b300984f1000020032000080eb0027
:100ee00019003700a0c2b300d84f100007003a0025
:100ef000cf8897000180e900c08f9f001000780024
:100f0000a09f9f000804e800100037000000eb00dd
:100f1000a09f9f008800780005003700f3ff27009e
:100f2000830f5000020032006a02b9000400410041
:100f300001047800880078003101fb000203b10051
:100f4000e90f5100f5ff3600a09f9f0098447800fc
:100f50008900fb0040862000d20207000000e0006c
:100f6000020032000804e800010037008044eb0072
:100f7000c97f9f0080c6b30080cf540004003a00b0
:100f800098cf14000a003a0066405000060037006f
:100f9000c0c6b30080cf540005003a0098cf1400bb
:100fa00003003a0065404000c07f9f000804e8004d
:100fb0001801fb00e3fb2f008f81410081f92f0016
:100fc0008f804000a0f92f000f00400010000700a4
:100fd0000000e00009003a00e1fb2f008f80400094
:100fe000a0f92f000f004000e40207000000e0001d
:100ff000020035000804e80061ff37000080eb00c4
:101000004f0578004f04be000080fa000000060083
:10101000889fbe008a1f7800000478008244780010
:101020000305780070c4b30080cf54000a003c0070
:1010300000c0e90080cf54000f003d0050c2b30053
:1010400080cf5400350032007c40400080cf5400f7
:1010500035003a000800370010c6b30080cf5400b6
:101060000500320030003500b0c9b30000c04400b4
:10107000e24f50002c003e0028619000c0c4b30035
:10108000804f510006003a001101780068005100bd
:10109000800878005001be004000be000500370007
:1010a0001101780064005100800878001000be0033
:1010b00074040700009cbe000294be00b8009000bb
:1010c000780090000100e00002003d00d1c2b300b2
:1010d00008003700881090000118a30002003200b9
:1010e000b1c2b300030037000108a30004003200be
:1010f00001c2b300017578000000e8007004980098
:1011000078009000000545006a0498008900fb0003
:1011100008007800100007000b00370078009000ee
:10112000097578000600370078009000000545003a
:101130000904e00001003a0059c2b300094d7800eb
:101140000000e800700498000000eb004f057800f4
:101150004f04be00000006002f04b000889fbe00b0
:101160008a9fbe008c9fbe008e1f7800000778000b
:1011700081f79f003e04be002e05be005e08900071
:101180000000e00002003d0060002000500f9800c9
:101190008e00780020fb2f000f0040004d0207005a
:1011a000e20f50000a003a0030002000100f9800b3
:1011b000b1c9b3000ff097008140400000812000ca
:1011c000e1cf50000d003e00c08020000b00370032
:1011d0000000e0000f00340030002000100f9800e5
:1011e000b1c9b3000ff19700814041008081200018
:1011f000e1cf500001003e0040812000ee00900051
:10120000b0487800b06878001040780090409800ae
:10121000f30037000000e00005003a0022fb2f0039
:101220000f014100001978008001eb00e700370052
:101230006022b8006033b8000800be000a01be009a
:10124000580307000000e00001003d000bf0a20081
:10125000705927009f9897000088b900026a2800fb
:1012600013002000b3030700640650009c9f9f00fa
:1012700013003b0063061600c0ff2f000006660047
:101280008c01ea00939f9f00cd8120000800be00e2
:101290000a01be00070037000c08a300030032005b
:1012a0003d02be002d03be00450407000c86d100a0
:1012b000e88646000c00e000f7ff3c00180037000d
:1012c0000c00e00018003200c0ff2f00000666008e
:1012d0009c9f9f00cd8120006000b800020020008c
:1012e00003ff2300070037000c08a30003003200af
:1012f0003d02be002d03be00310407000c86d10064
:10130000e88646000c00e000f7ff3c000002be004b
:101310000203be000800be000a01be002b03070046
:101320000004be000205be00de08900060c6b300e7
:101330000ff29700804f520004003200600020003e
:1013400062c4b300824f520002003a009f9a970095
:101350006a80420081004000f1b79f0001037800dd
:10136000f30f53000200340037012000f7b79f004d
:1013700000c3b300c0779f0056fb2f000f0343004c
:101380000e007800a0b79f00060778003d003700e8
:101390000800be000a01be00d90307000006be0017
:1013a0007fb1970068015100f2b79f004240a90049
:1013b0000c003400fe0307000002be000203be0062
:1013c0000800be000a01be00730407006022b800d6
:1013d00046782d0077192400f90307000004be00a9
:1013e0000205be00e80047008e0020000802be0093
:1013f0000a03be00b4b79f00c5b79f00d6b79f00d1
:10140000e7b79f000c01be00010478000c00370014
:10141000a400200005002000c0fd2f000f004000a8
:10142000840107006fa89700ffa897000fb19700ed
:101430009fb1970005c3b300056441000001be00e1
:10144000e00f5100e08f5900030034000e07e9005f
:10145000e10f4700eeff3a00880078003fb49700a4
:10146000cfb497005fb59700efb597000200370043
:1014700000c3b300806078000e07e900fcff3b006a
:10148000688740007fb397000600e0000700340043
:101490006022b8006033b8000800be000a01be0038
:1014a000c50207000000e000b9ff3c000e03780011
:1014b0002fb7970051fb2f008f804000010353008e
:1014c0009f9b970067804300909f9f00020037001a
:1014d0000603e9000000e9000101780082007800bd
:1014e00003c3b300b1cf1100f9ff3200909f9f00fa
:1014f000de09900061c6b3000ff29700814f5200e1
:101500000300320061c4b300814f520002003a0070
:101510000000e8000a0037001000200051c6b300a8
:101520008ff2970081cf520005003200054078000d
:1015300050c4b2000080fb000000e9004f00de0054
:1015400083014000868f510001003400860178003d
:101550000300e0001d00350000c3b300868f51007a
:1015600006003d0062c279006940400041c3b300fb
:10157000814f520001003c00694050008300e900a7
:101580008100410001003700840178000302e90076
:1015900001037800a142780080cf5200faff3200a8
:1015a00091c3b300814f500001003a00054be800a1
:1015b0000400e00005003d000201e9008301e800ad
:1015c0001f9b97000603e800969f9f008ff39700ec
:1015d0008700fb001f9a97000e00780006000700a6
:1015e0004f0778004f06be004f05be004f04be00f7
:1015f0002f04b10000000600f0874700889fbe005e
:101600008a9fbe008c9fbe008e1f78000004780069
:10161000814478000205be00040678000b00e0005b
:1016200002003c001b002000ea87200060c6b300d7
:1016300080cf54000e00320060c4b30080cf54004d
:101640000b00320070c6b30080cf5400030032009c
:1016500070c4b30080cf540081003a00e40f46000c
:101660007f00350058089000800f56007c003d0038
:101670000c06e80060c6b30080cf540010003200b2
:1016800060c4b30080cf54000d00320008109000f9
:101690000038a30004003a0058089000808f5500dd
:1016a00001003d005b0c9800580890000c005000b1
:1016b000500c980002003b000000eb00500c98001a
:1016c00018089000e80090000c00e00026003c00a4
:1016d00002c3b300827078000000e800100c98008c
:1016e000d80890000100e00003003c008810900042
:1016f0000138a30005003200e8009000e2c2b30008
:10170000827078000000e800100c980058089000e3
:101710008c00ea00810f500001003d000006ea0045
:101720008c00ea00210c9800000646005c0c980032
:101730008b0f5600010034000b0678003c0c98001b
:10174000e800900018089000008040000c0178002c
:101750008a007800cc000700580890000c06500062
:101760004c0c9800900037008c8f550018003d00fd
:10177000008040000b0178008a007800c20007005a
:101780001808900000804500100c98008b0556004a
:101790002b0c9800d80890000100e00003003c00ea
:1017a000881090000138a30006003200e800900085
:1017b000e2c2b30082707800380890000000e800b0
:1017c000300c980058089000400c980076003700c4
:1017d000008040000c0178008a007800aa00070011
:1017e0001808900000004600100c98008c855500e9
:1017f000d80890000100e00003003c008810900031
:101800000138a30005003200e8009000e2c2b300f6
:10181000827078000000e800100c980058089000d2
:10182000808f55000100340080057800e8009000aa
:1018300018089000008040008c0045000b017800e3
:1018400091000700180890000b004000100c980051
:10185000580890008b0550002b0c98005200370060
:1018600018089000e80090009a7078000000e800e6
:10187000100c9800d80890000100e00003003c0024
:10188000881090000138a30005003200e8009000a5
:10189000e2c2b300827078000000e800100c9800eb
:1018a000580890000000e000100034008b05e900ab
:1018b000808f55000100340080057800e80090001a
:1018c00018089000008040008a00e8000b017800b2
:1018d0006d000700180890000b004000100c9800e5
:1018e000580890008b0550002b0c9800e8009000e1
:1018f0001808900000804000095878000007e800b0
:101900000c00e00004003500b1c2b30001487800cb
:101910008e04780004003700d1c2b300014878007b
:101920008e0478000c06ea007d8557008006eb00e7
:1019300009003700a20020008c0078007280570058
:10194000310007007fb097008fb89700016d7800d5
:10195000000678008d06e8000c00e000f5ff3c0072
:101960000d00e00009003a008e04780000c3b300c7
:10197000805c7800050037008d06e900fc80570088
:1019800061c07e0002c3b300825c40000d00e00035
:10199000f9ff3c00e800900018089000008040002b
:1019a00080845400390c9800081090007400600086
:1019b000f00f50000e003a00980890007800900058
:1019c00000804000a808900001004000b808900086
:1019d00001004000c808900001004000f808900095
:1019e000810f500002003d0000805000000c980064
:1019f0004f0778004f06be004f05be004f04be00e3
:101a00000f01b10000000600800278000103780099
:101a1000110009000203d80080017800830a7800d1
:101a20000299b90002015300920298000500780063
:101a300000000600881f78008a9fbe008c9fbe00b1
:101a4000000478000205be000406be000401be00ca
:101a50000a00be00b7010700008cbe000c01be00ea
:101a6000df0207000005550081855d002a0498000b
:101a70003b049800080078004f06be004f05be00ea
:101a80004f04780000000600800178000200370053
:101a9000b15978000201e9000200e000fcff3a00c1
:101aa00000000600020037000304e00006003200d8
:101ab0000001780002007800b041780081cf510029
:101ac000f9ff3a00010037000001eb000200780046
:101ad00000000600889fbe0000047800e6844000f5
:101ae0001900d0004500de00f27f2000820f500078
:101af00010003a00000ceb00990478006f8164003c
:101b0000200020001b003a00210190000200e000ac
:101b100018003a00110190000200e00015003a00a0
:101b2000100020001100e000120032002000200010
:101b3000100037000000e00004003a0001007800c7
:101b4000cc0007000000e00008003c00f200280084
:101b50001901610001fe2300810c710021c02f00da
:101b6000010c40000080eb0002003700000ceb008d
:101b70000000eb004f04be00000006000400fa0065
:101b8000889fbe008a9fbe008c1f780000047800ea
:101b900001067800f80d90007800900080855500cf
:101ba0000808900080855500180890008085550031
:101bb00028089000808555003808900080855500e1
:101bc00048089000808555000002220090bf9f00c9
:101bd00000032300a0bf9f00081090000028a3006e
:101be00015003a000b00e000130034000b057800ec
:101bf0008a047800e20f5500010036002900200019
:101c0000c801900009017800ee805700580090004c
:101c100003000100500498000000e0008c00320036
:101c20006808900009004000600c98000905550004
:101c30004240a900eeff3c00780190000200e00065
:101c40000c003400c80190008c007800580090000f
:101c500003000100500498008080eb000000e000c9
:101c60007c003200e808900078009000008040007e
:101c7000600c9800880c90000900e000110034000e
:101c800009057800e28f5400010036002a00200088
:101c9000c80190000a017800ec80570058009000bd
:101ca00003000100500498000000e00068003200ca
:101cb000680890000a004000600c98008a84540074
:101cc000edff3700180990000200e0000c0034001e
:101cd000c8019000e8009000580090000300010047
:101ce000500498008080eb000000e00059003200b2
:101cf000e80890001808900000804000600c9800f0
:101d0000a80c90000900e0001100340009057800db
:101d1000e28f5400010036002a002000c801900024
:101d20000a017800ec805700580090000300010081
:101d3000500498000000e000450032006808900060
:101d40000a004000600c98008a845400edff3700c0
:101d5000380990000200e0000e003400e800900016
:101d60001808900080804000c80190005800900042
:101d700003000100500498008080eb000000e000a8
:101d800034003200e80890003808900000804000dd
:101d9000600c9800c80c90000900e00011003400ad
:101da00009057800e28f5400010036002a00200067
:101db000c80190000a017800ec805700580090009c
:101dc00003000100500498000000e00020003200f1
:101dd000680890000a004000600c98008a84540053
:101de000edff3700081090008000eb000028a300f2
:101df000180032000b00e000160034008b0478005d
:101e000009057800e28f5400010036002a00200006
:101e1000c80190000a017800ee8057005800900039
:101e200003000100500498000000e00008003200a8
:101e3000680890000a004000600c98008a845400f2
:101e40004240a900eeff3c008000eb00010037009b
:101e50008080eb00010078004f0678004f05be003f
:101e60004f04be000080fa00000006000108780060
:101e700000000600e600400011017800050028007f
:101e8000850261006f016100820878000200320063
:101e90001200200011003700a00190001200200065
:101ea0000300e0000d003a00900190000300e00004
:101eb0000a003a001000e00008003a00360037003f
:101ec000640340009608780080017800530b780086
:101ed0009009780004087800700151001102780020
:101ee0000400e000f6ff32001300370064024000f7
:101ef000140378004f33de008381410083087300b0
:101f000080017800d3037800cf3bde001403780013
:101f100006034300068a730013027800040242009d
:101f2000100378004f33de008609720090017800bc
:101f3000038841000201e90091017800ef8f510010
:101f4000eaff360010003700800178005303780064
:101f50004f33dd001002d10004087300640240001a
:101f600094037800cf3bdd001303d1008689730012
:101f7000110378004f33dd009401d100030a730090
:101f80009108d1000201e80091017800ff8f510013
:101f9000edff3e00ef88610091887200020078003a
:101fa000000006008f1fd100110207008f87e90093
:101fb0000000e00000000600809feb000c0207001c
:101fc0008f87e9000000e000000006002800fa000a
:101fd000889fbe008a9fbe008c9fbe0003866b0058
:101fe0008f0007006400e100440032006408e10053
:101ff0004a0032006100e100460032006108e10061
:1020000049003200ec0647006000b8003d02be0007
:102010003d03be00f48657006011b8003d04be00c9
:102020003d05be007d0320000b0037000000a0002e
:102030008d06e900130032000402420085824a0046
:1020400006034b0087834b0000004000818048005e
:1020500002014900838149000802520089825a0026
:102060000a035b008b835b00f0ff3b000802420029
:1020700089824a000a034b008b834b008d06e900de
:10208000edff3a008482720086827200f707b20088
:102090008782720001003200150020001e049000ab
:1020a0003e0b900006035400e63fb0000368a30017
:1020b000070032000000a7000500a0008301d10046
:1020c0000281d3008180d3000080d3000603e800a2
:1020d0008301d1000281d3008180d3000080d3002e
:1020e0000002eb000482d2002100070003f0a100ef
:1020f0000cf0a70003f0a0005d0037006402470069
:102100006408e100570032003400be003401be0014
:10211000f6ff37006108e100520032006011b8009c
:102120006000b800f1ff370003ff27000200200025
:10213000fbff3700839f68000100e00002003d00c4
:1021400060001000e08018000300e00002003d0085
:1021500060011100e0811900110107004f00e0004b
:1021600002003b0060001000e08018000000060044
:102170001800200057002000080453000d003d0007
:102180000600200097fc2f000740e1001e003400ed
:1021900084827200610260008301d1000281d30059
:1021a0008180d3000080d3000804e800f8ff3a00e3
:1021b000470020006104600005047400040464000a
:1021c0000d00320061004000e080480060014900dd
:1021d000e081490003b8a500070032000603e800cb
:1021e0006538e10004003a008301d1000281d30088
:1021f0008180d3000080d300f87f20000830e10008
:1022000003003500080378006000b8006011b800d2
:102210004433dd00f300b2008301730000000600c8
:10222000680447000294be000094be00fc0447000e
:102230008694be008494be0009007800b5010700b2
:1022400008007800b301070099007800814f700002
:102250000b003b000800be008e0107004f00b100dc
:1022600003003700f3ff2700f2ff2f006110b900d1
:102270004f06be004f05be004f04be000080fa00ae
:102280000000060081037800e8f907000001be00a5
:102290006000b8000478a30013003a006220e10057
:1022a00015003e000d0039008301d1000281d300ea
:1022b0008180d3008301d1000281d3008180d300cb
:1022c0008301d1000281d3008180d3000538b000a2
:1022d000c42add00f300b2008381720007f0a7007a
:1022e00003f0a00000000600f3ff2700f2ff2f001c
:1022f0006110b900fbff370003ff2700f7ff37002d
:102300001400fa00889fbe008a9fbe008c9fbe000a
:102310000004be000205be00680047000a90be002f
:102320000890be007b0107000070a7000bf0a10021
:10233000304320009e02900080825200b0fe2f00a9
:102340000028e10011003d00b0fc2f000028e10052
:10235000150034001e0990008e0890007e00900049
:102360000501b0000201d1008180d3000080d300bc
:102370008502e800fbff3a000b00e000bcff3b00d9
:1023800060001000e0801800b9ff3700f0ff2f0058
:10239000f1ff27000b00e000b5ff3b000100280023
:1023a00000002000b2ff37006000b800b0ff370027
:1023b0004f89de00820178007d01370000000000b7
:1023c0002800fa00889fbe008a9fbe008c9fbe0036
:1023d00003866b0092ff07000028a30064003a0008
:1023e0000128a30067003a000008a30062003a0039
:1023f0000108a30065003a001e009000be0890008e
:1024000081064000ed3fb100f4805700ee019000de
:10241000111ab8008e099000311bb8009e09900077
:10242000311cb800511db800f48557004600070064
:10243000fe0190003a0007008b85e8003e0007008f
:102440008e09900040000700ee0190003400070064
:102450008b85e800380007008e09900040000700d7
:102460009e0990001b18b800890440000a854800a6
:10247000fe019000340007008b85e800380007005b
:10248000ee019000300007008e0990001b18b80084
:10249000890440000a8548000a98a30008003a0011
:1024a0000402420085824a0006034b0087834b00ea
:1024b00008044c0089844c000a054d008d06e90093
:1024c00084827200850273004c3add00850272003e
:1024d0000100320015002000443ade001400b20072
:1024e0004538de00cb45dd000b007000c540de0046
:1024f000cb4ddd008b8070004549de00cb55dd0003
:102500000b017100c551de000d03780018ff0700b4
:1025100003f0a1000cf0a70003f0a00054ff370067
:102520001b18b8008502400006834800e0834b007a
:1025300060044c00070037001b18b8000603400079
:1025400087834800faff37001b18b8008703400054
:1025500008844800e0844c0060054d00000006003f
:102560001b18b8000804400089844800faff3700af
:102570000108a3003bff3a005800be005801be000e
:10258000e3ff37000008a30036ff3a000904780093
:10259000f9ff37000000000007f0a2001600370026
:1025a0006022b800060220000000d0008180d20026
:1025b0000482d2008582d2000000a00002025200f4
:1025c00083825a00030031000202420083824a00e3
:1025d0000000a1000603e900f3ff3a000000060036
:1025e000020ab900001bb9000200b80081004200d5
:1025f00081004300000006002800fa00889fbe000a
:102600008a9fbe008c9fbe000706780087866900ff
:102610000c003b00030478008704780008f0a10058
:1026200009f0a100840f5000858f5800860f5900d3
:10263000890f5c00030033000cf0a20001003a0097
:102640000cf0a100f6fe07006400e1005f0032001c
:10265000780147006408e100610032006c01470026
:10266000748557003200be001201be003a04be005d
:102670001a05be001e039000be0a90008503530099
:1026800006003d000004fd008104fd000205fd0080
:102690008305fd008703ea00050378000df8a30019
:1026a0000400320060041400e0841c0060051d007a
:1026b000e0851d006022b8007d0320000d38e10098
:1026c0008006eb000b0039004433dd00f300b2005c
:1026d0008301730039003700848272000d02780094
:1026e000e10664008b85d1000a85d3008984d3007c
:1026f0000884d3008703e900f7ff3b00080040008f
:10270000898048000a0149008b81490004003b0090
:1027100060001000e080180060011900e0811900dd
:102720000358a300090032008d8272008482720077
:10273000610260008301d1000281d3008180d30057
:102740000080d3000603e8001b0037000348a30005
:1027500017003a000600e000170034000603e90005
:102760000d00a300000048008180480002014900dc
:10277000838149000348a3000f003a000600e000ef
:10278000090034000603e900000040008180480091
:10279000020149008381490001003a000003eb0077
:1027a0000348a300f5ff32006022b80002003700a2
:1027b00084827200618266006dfe070003f0a10052
:1027c0000cf0a70003f0a000a9fe37006401470049
:1027d0006408e10002003a000df8a300a1fe3a00ef
:1027e0003200be001201be00a1fe37000000000052
:1027f000889fbe008a9fbe008c9fbe000404be005e
:102800000605be00809fbe00829fbe002f0007000d
:10281000040678000800be000a01be002b00070075
:10282000840678004f03be004f02be008d4f760035
:102830007fb0970013003300f0ff2f008b8f6b00e9
:1028400006003b000d0666000c00a7000a003700da
:1028500007f0a600100020000a003700880f520081
:10286000898f5a008a0f5b008b8f5b000300390051
:102870001000200001003e000000200007f0a7002b
:102880000000ea004f06be004f05be004f04be0028
:1028900000000600e48240001078a3000700320028
:1028a000640240001178a3003400be001401be0091
:1028b000040032000330a700000006003500be000f
:1028c0001501be000330a0000000060005ff270030
:1028d00005826100070032000428e1000100320097
:1028e000240005000600070001003a00440005002e
:1028f0000408050002000700f9ff3a001400050073
:102900006f82610081027000850271008502720091
:1029100000000600800078005002be005003be0098
:102920004439de00f700b200f37f200003016100ac
:10293000090032000218e10016003a008501720019
:1029400083017300838173000008200015003a00a2
:1029500040002000130037008501720083017300de
:102960008381730005003a0004a8be0006a8be00db
:10297000100020000b0037000201e90004024200b1
:1029800085824a0006034b0087834b000748a3005b
:10299000f9ff32000740a00004a8be0006a8be0050
:1029a000200020008000980092009800000006009f
:1029b000881f7800030478000300e00007003d0052
:1029c00060001000e080180060011900e08119002b
:1029d00002003b0001f02d00030037000400070057
:1029e00008f0a70003f0a0004f04780000000600e4
:1029f000889fbe0000827000040271000482710092
:102a00002400320036432000c50020008383cf001d
:102a10000a0039000541b1008283cf000700390068
:102a20000541b1008183cf00040039000541b100a8
:102a30008083cf00010039000541b10085c35300f8
:102a40006022b800120032000a003b00848272004b
:102a5000610260008301d1000281d3008180d30034
:102a60000080d3000603e8008743e800f7ff3a0040
:102a70000700370000004000818048000201490043
:102a8000838149000603e9008743e900f9ff3a0022
:0c2a9000b7fd07004f04be000000060068
:020000040000fa
:102a9c004469000073630000686100007267000005
:102aac00696e000067200000436100007061000047
:102abc0063690000746f0000722100000a0d0000b1
:102acc000052000065610000647900002074000071
:102adc006f200000676f0000210a00000d0000004d
:102aec0043610000706100006369000074610000c4
:102afc006e630000653a000020250000662000008f
:082b0c000a0d000000000000aa
:020000040000fa
:102b14000000fa00c802a900c822a800cc02a8003c
:102b24008000200080118800113a800000002700f6
:102b34008080600000002600808f500003003a006f
:102b4400c0002000c011880010003700113a800036
:102b5400000027008080600000002500808f500066
:102b640003003a00c0002000c011880007003700ad
:102b7400113a800000002700008060000000e0009f
:102b840002003a0070062000c011880000002a00ec
:102b94009011880087e0a90091058000f0ff2800cb
:102ba4000080600000e0a0009005880097e0a80085
:102bb40087c0a90091058000f08f2f0080806000fd
:102bc40000302000010070009005880097c0a90023
:102bd40031e2a8003342a8000080fa000000060099
:102be4000400fa00004f780011079800c8ff07009e
:102bf4000d0037000140fe00010037000000000016
:102c04009111800000202000008060000000e0009e
:102c1400f8ff3a001e80fb00a01188001e009000ff
:102c24000000e900100798001e0090000000e0007a
:102c3400f2ff3a0000000000911180000010200013
:102c4400008060000000e000fbff320031e2a900d8
:102c54000080fa00000006000400fa001007980043
:102c64000040eb00104798001100200000c2b300a0
:102c7400dbff07001100200000c3b300d8ff0700ea
:102c84001100200080c7b300d5ff070030c0b30097
:102c9400004f7800150037001e00fb004200dd00e5
:102ca4009e0090000008de00004078006f40600045
:102cb400104798001e409000e94f50000400340073
:102cc4001e4090007043b000104798000300370086
:102cd4001e4090000043b000104798001e40900032
:102ce40011002000beff07001e4fe9001e407800bf
:102cf4000004e000e8ff3d001100200000c2b30022
:102d0400b7ff07000000eb00100798000080fa00ee
:102d1400000006000600fa0010079800210798003a
:102d24000040eb00104798001100200000c2b300df
:102d3400abff07001100200000c3b300a8ff070089
:102d44001100200080c7b300a5ff070070c0b300c6
:102d5400004f78001b0037001e00fb004201dd001d
:102d64001e009000ae009000820178008301e9000b
:102d7400030033008100d1000080d300fbff370043
:102d8400004078006f406000104798001e4090009b
:102d9400e94f5000040034001e4090007043b0001e
:102da40010479800030037001e4090000043b00015
:102db400104798001e4090001100200088ff070073
:102dc4001e4fe9001e4078000004e000e2ff3d00d1
:102dd4001100200000c2b30081ff07006000b800aa
:102de40010079800210798000080fa0000000600f0
:102df4000200fa00000f78000080fa0000000600cc
:102e04000400fa00100798000000eb00000f78009f
:102e1400060037001e0090001e004000104078009d
:102e2400110020006eff07001e0fe8001e00900036
:102e3400a8f707009e0f5000f6ff31000080fa004b
:102e4400000006001000fa00881f78006007980050
:102e54007107980018c0b30042e12a0073f42300fc
:102e64006e009000fe009000a8f607000000e0004d
:102e7400010035000044eb000804e000400032008b
:102e840018c0b3006011b8006e009000fe009000fe
:102e9400a0f607000000e00001003d000044eb0044
:102ea4000804e0003600320032a6a8003286a900e9
:102eb40002002000031c24006e009000fe0090001d
:102ec40006f7070092c22500730424004df607009c
:102ed40020079800310798002e009000be00900053
:102ee4008ef60700000078008000eb00a6f60700cd
:102ef4000001be002e009000be009000e3f5070024
:102f040018c0b3000200200003f0230081f607007c
:102f14000000e00001003d000044eb000804e00074
:102f2400060032002e009000be0090007bf60700e1
:102f340000007800000fe800040037002e00900025
:102f4400be00900075f60700000f78001e007800a0
:102f5400004078006f4060000080fb006f0060005c
:102f64009231800001ff2f00810061000100700098
:102f74009031880032e6a80032c6a90075003700f7
:102f840018c0b30042e12a0073f423006e009000dd
:102f9400fe0090005ff607000000e00001003d0025
:102fa4000044eb000804e0004500320018c0b30000
:102fb40092c22500f30024006e009000fe009000f1
:102fc40052f607000000e000010034000044eb006a
:102fd4000804e0003a00320032a6a9003286a900b3
:102fe40092c2250073f423006e009000fe0090004e
:102ff400a6f507000200200003202400b7f607000e
:1030040092c2250073042400fef5070040079800cf
:10301400510798004e009000de0090003ff6070034
:10302400000078008000eb0057f607000001be00a6
:103034004e009000de00900094f5070018c0b30025
:103044000200200003f0230032f607000000e00035
:1030540001003d000044eb000804e00007003200da
:103064004e009000de0090002cf60700000078006f
:103074000000e80010079800040037004e0090009c
:10308400de00900025f60700100798001e0090004f
:10309400004078006f4060000080fb006f0060001b
:1030a4009231800001ff2f00810061000100700057
:1030b4009031880032e6a80032c6a9002500370006
:1030c40018c0b3006011b8006e009000fe009000bc
:1030d4000ef607000000e000010035000044eb009c
:1030e4000804e000090032009131800000ff2f0045
:1030f400008060009031880032a6a8003286a900c2
:1031040032e6a80032c6a9001200370018c0b30086
:1031140092c22500f30024006e009000fe0090008f
:10312400fcf507000000e00001003c000044eb0057
:103134000804e0000700320090318000f000b30082
:103144009031880032a6a9003286a90032e6a80090
:1031540032c6a9004f0478000080fa00000006007f
:103164000000fa002203a90028e3a9004119800005
:1031740000ff2f0000806000b000b30040198800f9
:103184002d63a9003163a90021e3a8002023a8002e
:103194003da3a9003d83a9003d63a9003d43a900c7
:1031a4003d23a9003c03a8003c23a8003de3a8005c
:1031b4000080fa00000006000000fa004040800091
:1031c4000000e0000a003200f1198000f0cf2f0067
:1031d400008060000090a000f0198800f1198000c0
:1031e40000c02f0001007000f01988000a003700a9
:1031f400f11980000030200001007000f0198800ef
:10320400f1198000f03f20008080600000802100e0
:1032140001007000f01988003d23a9003c23a90097
:103224000080fa00000006000000fa003c23a80019
:103234003d23a8000080fa00000006000c00fa00fc
:10324400881f780040079800510798006000b80074
:1032540020079800310798006000b800008fbe0076
:10326400404080000000e0001e003200c0e8220060
:10327400a1fb230020079800310798004e0090001e
:10328400de009000c0f507002e019000be01900002
:103294005cf507000200200043262400fbf407002d
:1032a400008fbe0018c0b30002002000a347240012
:1032b4001e00be0097f507000000e00001003c007e
:1032c4000044eb000804e000250032000200200066
:1032d400a34724001e00be004af50700008fbe006d
:1032e4001f00370060202f0041e1230020079800d1
:1032f400310798004e009000de009000a2f5070010
:103304002e019000be0190003ef50700020020004f
:1033140043262400ddf40700008fbe0018c0b3006c
:1033240002002000a34724001e00be0079f5070018
:103334000000e00001003c000044eb000804e00051
:103344000500320002002000a34724001e00be0036
:103354002cf50700008fbe001000200040408800bc
:103364001e00be004f0478000080fa000000060032
:020000040000fa
:10337400000800000400000000000000080800002d
:1033840002000000000000000a0800000200000023
:103394000000000004080000040000000000000019
:1033a400640800001a00000002000000686a6c0053
:1033b400747a4c00000001000002000004000800c0
:1033c40000100000000020002b2d2300300000001e
:1033d4000c08000058000000020000006e616e003e
:1033e400004e41004e0069006e660000494e4600e2
:1033f4000000000000000000002440000000000065
:103404000000000059400000000000000088c300d4
:103414004000000000008400d79741000080e000d5
:103424003779c300414317006e05b500b5b8930062
:1034340046f5f9003fe903004f384d00321d3000d6
:10344400f9487700825a3c00bf737f00dd4f1500b6
:10345400750000007e080000020000000200000069
:08346400300000000000000030
:020000040000fa
:10346c000400fa00100798001e009000e80f5000ae
:10347c0003003a000040eb00004f780010003700ca
:10348c009e009000401f2000808f500003003a00e7
:10349c0060c6b300004f7800090037009e00900012
:1034ac0000022000808f500003003a0050c5b3008a
:1034bc00004f78000200370050c5b300004f780071
:1034cc0011028000000e2000010070001002880024
:1034dc00213a8000f08f2f0000806000203a880095
:1034ec001e01fb0080072000a1092000337420007e
:1034fc0080497800814978008249780012002000c8
:10350c00600420007105200023742000804978009d
:10351c0081497800824978004207a8000000000029
:10352c00103a8000610060000000e000fcff3a00ef
:10353c0011028000f0f12f00008060001002880062
:10354c000080fa00000006002c00fa006000b800b1
:10355c00008fbe00c9e2a9004fe7a8004fa7a90041
:10356c004f87a900713a8000f00f2f000080600097
:10357c00703a880080002000b9ff0700c062a800e4
:10358c00c9a2a80010002000404088007d00070060
:10359c00400007005e00070000002000010024002e
:1035ac0026fe0700ecfe0700e054290012fe07007f
:1035bc003d23a800803e20004700070070562900dc
:1035cc000dfe070011e1a800f9fe07000140fe0006
:1035dc0013ff070080bb20003f0007002040800045
:1035ec003140800013ff0700008fbe0064014700cc
:1035fc001e00be00809fbe0060572900801f78000f
:10360c0002007800bef50700e6875700640047000b
:10361c00f9fd0700ebff37000000fa002203a900b8
:10362c0028e3a9004119800000ff2f0000806000f2
:10363c00b000b300401988002d63a9003163a900c4
:10364c0021e3a8002023a8000080fa000000060057
:10365c000200fa002023a80001188000010f780056
:10366c001e0078000080fa00000006000200fa003c
:10367c00000f78001e0078008000eb00c0f40700fb
:10368c00d2c02c0093b4230012f507000080fa007e
:10369c00000006000000fa0005a1a9002108800026
:1036ac00f0fc2f0000806000200888000421a90095
:1036bc0021058000f0ff28008080600000002500bc
:1036cc0001007000200588008460a9009460a800a7
:1036dc000080fa00000006000200fa00000f7800db
:1036ec00000220005eff07001e0078004400dd0091
:1036fc00100888000021ef0005e1a8000140fe0041
:10370c008000200056ff07000080fa000000060031
:10371c000000fa0031e6a9003686a800b13180001d
:10372c00c0ff2f00008060000000a000b0318800b6
:10373c0037a6a800b1318000f0f32f0000806000a4
:10374c000060a000b03188003786a8003726a90099
:10375c0061058000f08f2f008080600000602000e9
:10376c0001007000600588008640a9009640a80002
:10377c0037c6a80037e6a800c0c2a9000080fa002e
:10378c00000006000000fa001061a800810880000b
:10379c00f0fc2f0000806000800888001021a90038
:1037ac009500a800400580007000b300400588001b
:1037bc008500a900b0002000700888000080fa0085
:0437cc0000000600f3
:020000040000fa
:0200000401f009
:04000000ffff0000fe
:020000040000fa
:0200000401f009
:04000800ffff0000f6
:020000040000fa
:0200000401f009
:04000c0000000000f0
:020000040000fa
:0200000401f009
:040010005300000099
:020000040000fa
:0200000401f009
:0400140040000000a8
:020000040000fa
:0200000401f009
:0400180010000000d4
:020000040000fa
:0200000401f009
:04001c00c20000001e
:020000040000fa
:0200000401f009
:0400200017000000c5
:00000001FF
