:020000040000fa
:080000000002040000000000f2
:020000040000fa
:04000800560300009b
:020000040000fa
:04000c005603000097
:020000040000fa
:040010005603000093
:020000040000fa
:04001400560300008f
:020000040000fa
:04001800560300008b
:020000040000fa
:04001c005603000087
:020000040000fa
:040020005603000083
:020000040000fa
:04002400560300007f
:020000040000fa
:04002800560300007b
:020000040000fa
:04002c005603000077
:020000040000fa
:040030005603000073
:020000040000fa
:04003400480300007d
:020000040000fa
:04003800560300006b
:020000040000fa
:04003c005603000067
:020000040000fa
:040040005603000063
:020000040000fa
:04004400560300005f
:020000040000fa
:04004800d2020000e0
:020000040000fa
:04004c005603000057
:020000040000fa
:040050005603000053
:020000040000fa
:04005400560300004f
:020000040000fa
:04005800560300004b
:020000040000fa
:04005c00c8020000d6
:020000040000fa
:040060005603000043
:020000040000fa
:04006400560300003f
:020000040000fa
:04006800560300003b
:020000040000fa
:04006c005603000037
:020000040000fa
:040070000403000085
:020000040000fa
:04007400560300002f
:020000040000fa
:04007800560300002b
:020000040000fa
:04007c005603000027
:020000040000fa
:040080005603000023
:020000040000fa
:04008400560300001f
:020000040000fa
:04008800560300001b
:020000040000fa
:04008c005603000017
:020000040000fa
:040090005603000013
:020000040000fa
:04009400560300000f
:020000040000fa
:04009800560300000b
:020000040000fa
:04009c005603000007
:020000040000fa
:0400a000f402000066
:020000040000fa
:0400a400fc0200005a
:020000040000fa
:0400a80056030000fb
:020000040000fa
:0400ac0056030000f7
:020000040000fa
:0400b00056030000f3
:020000040000fa
:0400b40056030000ef
:020000040000fa
:0400b80056030000eb
:020000040000fa
:0400bc0056030000e7
:020000040000fa
:0400c00056030000e3
:020000040000fa
:0400c40056030000df
:020000040000fa
:0400c80056030000db
:020000040000fa
:0400cc0056030000d7
:020000040000fa
:0400d00056030000d3
:020000040000fa
:0400d40056030000cf
:020000040000fa
:0400d80056030000cb
:020000040000fa
:0400dc0056030000c7
:020000040000fa
:0400e00056030000c3
:020000040000fa
:0400e40056030000bf
:020000040000fa
:0400e80056030000bb
:020000040000fa
:0400ec0056030000b7
:020000040000fa
:0400f00056030000b3
:020000040000fa
:0400f40056030000af
:020000040000fa
:0400f80056030000ab
:020000040000fa
:0400fc0056030000a7
:020000040000fa
:0401000056030000a2
:020000040000fa
:04010400560300009e
:020000040000fa
:04010800560300009a
:020000040000fa
:04010c005603000096
:020000040000fa
:040110005603000092
:020000040000fa
:04011400560300008e
:020000040000fa
:04011800560300008a
:020000040000fa
:04011c005603000086
:020000040000fa
:040120005603000082
:020000040000fa
:04012400560300007e
:020000040000fa
:04012800560300007a
:020000040000fa
:04012c005603000076
:020000040000fa
:040130005603000072
:020000040000fa
:04013400560300006e
:020000040000fa
:04013800560300006a
:020000040000fa
:04013c005603000066
:020000040000fa
:040140005603000062
:020000040000fa
:04014400560300005e
:020000040000fa
:04014800560300005a
:020000040000fa
:04014c005603000056
:020000040000fa
:040150005603000052
:020000040000fa
:04015400560300004e
:020000040000fa
:04015800560300004a
:020000040000fa
:04015c005603000046
:020000040000fa
:040208005603000099
:020000040000fa
:04020c005603000095
:020000040000fa
:040210005603000091
:020000040000fa
:04021400560300008d
:020000040000fa
:040218005603000089
:020000040000fa
:04021c005603000085
:020000040000fa
:040220005603000081
:020000040000fa
:04022400560300007d
:020000040000fa
:040228005603000079
:020000040000fa
:04022c005603000075
:020000040000fa
:040230005603000071
:020000040000fa
:04023400560300006d
:020000040000fa
:040238005603000069
:020000040000fa
:04023c005603000065
:020000040000fa
:040240005603000061
:020000040000fa
:04024400560300005d
:020000040000fa
:040248005603000059
:020000040000fa
:04024c005603000055
:020000040000fa
:040250005603000051
:020000040000fa
:04025400560300004d
:020000040000fa
:040258005603000049
:020000040000fa
:04025c005603000045
:020000040000fa
:040260005603000041
:020000040000fa
:04026400560300003d
:020000040000fa
:040268005603000039
:020000040000fa
:04026c005603000035
:020000040000fa
:040270005603000031
:020000040000fa
:04027400560300002d
:020000040000fa
:040278005603000029
:020000040000fa
:04027c005603000025
:020000040000fa
:040280005603000021
:020000040000fa
:04028400560300001d
:020000040000fa
:040288005603000019
:020000040000fa
:04028c005603000015
:020000040000fa
:040290005603000011
:020000040000fa
:04029400560300000d
:020000040000fa
:040298005603000009
:020000040000fa
:04029c005603000005
:020000040000fa
:0402a0005603000001
:020000040000fa
:0402a40056030000fd
:020000040000fa
:0402a80056030000f9
:020000040000fa
:0402ac0056030000f5
:020000040000fa
:0402b00056030000f1
:020000040000fa
:0402b40056030000ed
:020000040000fa
:0402b80056030000e9
:020000040000fa
:0402bc0056030000e5
:020000040000fa
:0402c00056030000e1
:020000040000fa
:0402c40056030000dd
:020000040000fa
:0402c80056030000d9
:020000040000fa
:0402cc0056030000d5
:020000040000fa
:0402d00056030000d1
:020000040000fa
:0402d40056030000cd
:020000040000fa
:0402d80056030000c9
:020000040000fa
:0402dc0056030000c5
:020000040000fa
:0402e00056030000c1
:020000040000fa
:0402e40056030000bd
:020000040000fa
:0402e80056030000b9
:020000040000fa
:0402ec0056030000b5
:020000040000fa
:0402f00056030000b1
:020000040000fa
:0402f40056030000ad
:020000040000fa
:0402f80056030000a9
:020000040000fa
:0402fc0056030000a5
:020000040000fa
:0403000056030000a0
:020000040000fa
:04030400560300009c
:020000040000fa
:040308005603000098
:020000040000fa
:04030c005603000094
:020000040000fa
:040310005603000090
:020000040000fa
:04031400560300008c
:020000040000fa
:040318005603000088
:020000040000fa
:04031c005603000084
:020000040000fa
:040320005603000080
:020000040000fa
:04032400560300007c
:020000040000fa
:040328005603000078
:020000040000fa
:04032c005603000074
:020000040000fa
:040330005603000070
:020000040000fa
:04033400560300006c
:020000040000fa
:040338005603000068
:020000040000fa
:04033c005603000064
:020000040000fa
:040340005603000060
:020000040000fa
:04034400560300005c
:020000040000fa
:040348005603000058
:020000040000fa
:04034c005603000054
:020000040000fa
:040350005603000050
:020000040000fa
:04035400560300004c
:020000040000fa
:040358005603000048
:020000040000fa
:04035c005603000044
:020000040000fa
:100400002f8120000edf20000e0188000000000078
:10041000000020000000e000020032000001200087
:100420002002880014000700a20007000000e0007e
:1004300003003a0040d320000100200002003700f2
:100440000000200001002000810f70000100320038
:1004500014000700000020000000e000020032004d
:100460000000020000000000600b0200000000001d
:100470000040da000000fe004440a9008005200092
:100480000000e0000300320000002000a00188000e
:100490004440a800000006008a1f78008b1f7800e7
:1004a0000000060091018800800478000000eb0045
:1004b0001a003700e284440032a0b4009905ba0063
:1004c000e284440032a0b4009906ba00e2844400f9
:1004d00032a0b4000006eb00476fde00fd07b2005b
:1004e000636ce10003003a00ebff07000000eb0043
:1004f0000a003700606ce10004003a00005deb0088
:100500008b05e900fdff3e00040037006168e10053
:10051000010032000086eb000b00070019c7ba008b
:100520001905ba000e04e00003003a000a00e000da
:10053000e0ff3a0000000600fe07b2009e018800be
:100540008a047800f5ff3700395dba008b05e900b1
:100550000c003200295dba008b05e900080032006a
:100560000c00e00003003a00e284440032a0b40032
:10057000f5ff370019ddba008b05e900faff3a00f4
:100580008904e800e184440032a0b40000000600c1
:100590000000fa0085a0a9002023a9000080fa002d
:1005a00000400600801f78000000fa000a28ef00d3
:1005b000004080000000e0000200320080bb20000c
:1005c0007008880011e1a9000028ef008500a9004b
:1005d0000621ef000a21ef00000000000080fa0071
:1005e0004f007800004006000000fa0087c0a90014
:1005f0000080fa00004006000000fa0087e0a90031
:100600000080fa0000400600809fbe00829fbe006e
:100610000800fa003c23a800500880008000eb008e
:10062000008fbe00300880008000eb00200798009b
:10063000310798001e00be00c001dd00020020004e
:100640002e009000be0090000000710081807100bb
:10065000304088004140880011e1a9000821ef00e6
:100660000621ef001000200050408800b00020005c
:10067000700888008640a9003726a9000000000005
:100680000080fa004f01be004f00be00004006008f
:100690000000fa008460a90005e1a9000021ef0034
:1006a000000000000080fa00004006000040da0070
:1006b0000000fe000000050003f0a200889fbe00bd
:1006c0008a9fbe008c1f7800f7000700fe003300f1
:1006d0006450e1004f0032006420e100520032001b
:1006e00003826c0007003b000905d0000306d00020
:1006f000820f54000c065d00020039000200320037
:1007000089017800030678008582550004003d00c9
:100710000003fd008103fd008502ea008b85420095
:10072000840f720002003b0060001000e08018009f
:100730006011b8000005eb007a28e1000a003900da
:1007400006007800c75ddd00f707b20087807500fe
:100750002d003700828171000a0178006105600078
:100760008180d1000080d3008502e900f9ff3b00c1
:10077000060440008784480002003b006004140027
:10078000e0841c000988a300070032008a81710000
:1007900082817100610164008904d1000884d30062
:1007a0008b05e800170037000978a30013003a0012
:1007b0000b00e000130034008b05e900080444003e
:1007c00089844c000a4474000978a3000d003a00a3
:1007d0000b00e000070034008b05e900080444002a
:1007e00089844c0001003a000b0020000978a30026
:1007f000f7ff32000001eb00020037008281710038
:100800000a0178006d0007000cf0a70001f0a000bd
:10081000b60037006420e10002003a00838f6c00cc
:10082000b60033000801be000200be00af00370072
:10083000889fbe008a9fbe008c1f78009a00070028
:10084000a100330003866c006450e1002e003200ea
:100850006420e100330032006150e1002f003200db
:100860006120e1003100320085855500eb07b000c2
:100870000900200008042000050037000804440097
:1008800089844c000a0031000603430087834b0033
:100890000001530081815b00f8ff33000203be00ba
:1008a0000800a0000804440089844c00f6ff3900c9
:1008b000c639dd00830173000100320013002000ff
:1008c0008904d1000884d3000998a30005003200f0
:1008d0000800a7000300a0008904d1000884d30009
:1008e0008b05e8008904d1000884d3000001eb00e7
:1008f0000281d2003100070001f0a1000cf0a70036
:1009000001f0a000790037006420e1007b00320094
:100910000801be000200be00f7ff37006120e100c1
:10092000760032006000b800f3ff370000002000be
:1009300001f82700f0ff370014002000a600370060
:10094000f4ff2f00a40037000001be0041000700a3
:100950000470a70003f0a10003f8a30013003a00fd
:100960006509b10010003200090035006928e10076
:1009700002003500010028000000050000004000d2
:10098000818048008502e900fcff3a000000060073
:10099000f88f4200050035008100d1000080d300af
:1009a0008502e800fcff3a00000006008000eb0032
:1009b000000005006011b800a2003700810020008f
:1009c000618055000b003d000b00200061fe2f00f0
:1009d0000100e1001d0034008281710061016400aa
:1009e0008904d1000884d3000000e800faff3a002f
:1009f00071002000610064000300700002006000cc
:100a00000900320061044400e0844c000988a5001c
:100a1000050032008b05e8006808e10002003a009a
:100a20008904d1000884d300f20f20000258e100ad
:100a300005003d00c75ddd00f907b2008980750043
:100a400008007800000006000bf827008b007800f3
:100a500000000500c70ade00f107b200f50fb20082
:100a600008003200e1cf4200020032000170a00015
:100a700024000500810f7000010032000408050009
:100a800044000500810f700002003a0014000500c8
:100a90008502e9000000400081c04800fcff3b00e7
:100aa0000170a000240005000004be00e9ff07005b
:100ab0000003be000405be000200be00e5ff070003
:100ac000844f7500000006000200be006450e10083
:100ad000050036006420e100020036000968a3002a
:100ae00001003a000800be000160a0004f06780037
:100af0004f05be004f04be0000000600f0ff2f00af
:100b0000f1ff2700f9ff3700889fbe008a9fbe00d3
:100b10008c1f7800e4ff0700ebff330003866c00b6
:100b20006450e100240032006420e100270032001c
:100b30006150e100220032006120e100210032001a
:100b40008b854200eb07b1000134b800003ab800d1
:100b50000804420089844a00013ab8000030b80015
:100b60008880400009014a00040033000000400072
:100b700081804800020149008b05e900c909dd00b8
:100b8000830170000100320013002000c814de0051
:100b90004814dd004709de001200b200c808de007c
:100ba0000884700085ff070001f0a1000cf0a70089
:100bb00001f0a000cdff37006120e100cfff32003f
:100bc0000801be000200be00f7ff37006150e100df
:100bd000fcff3a00c9ff3700889fbe008a9fbe0015
:100be000841f7800b0ff07004f0078001100330029
:100bf000f0ff2f00838f6c0006003b0004056500aa
:100c00000a00a7000800370009f0a6001000200025
:100c100008003700820f5400838f5c000300390006
:100c20001000200001003e000000200009f0a70095
:100c30000000ea004f05be004f04be000000e000c7
:100c400000000600889fbe008a9fbe0000827000e0
:100c50000402710004827100260032000004be000c
:100c60000200be006011b8006b0920009502200050
:100c70000182cf000a0039000541b1000082cf0097
:100c8000070039000541b1000982cf000400390096
:100c90000541b1000882cf00010039000541b100d3
:100ca00005425200120032000a003b0082817100ae
:100cb000610164008100d1000080d3008984d300e9
:100cc0000884d3008b05e8000442e800f7ff3a00ef
:100cd000070037000804440089844c0000004800e5
:100ce000818048008b05e9000442e900f9ff3a00e1
:100cf00032ff07004f05be004f04be000000060093
:100d000080007800010178003104e000fdff3a0026
:080d1000000051000000060084
:020000040000fa
:100d180044690000736300006861000072670000a6
:100d2800696e0000672000004361000070610000e8
:100d380063690000746f0000722100000a0d000052
:100d48000052000065610000647900002074000012
:100d58006f200000676f0000210a00000d000000ee
:100d68004661000074200000466900006e670000bc
:100d7800657200002064000065740000656300006f
:100d88007465000064210000212100000a0d0000a4
:100d9800004e00006f200000666900006e670000ca
:100da800657200002064000065740000656300003f
:100db80074650000642100000a0d000000000000b6
:020000040000fa
:100dc8000000fa00c802a900c822a800cc02a800a6
:100dd8008000200080118800113a80000000270060
:100de8008080600000002600808f500003003a00d9
:100df800c0002000c011880010003700113a8000a0
:100e0800000027008080600000002500808f5000cf
:100e180003003a00c0002000c01188000700370016
:100e2800113a800000002700008060000000e00008
:100e380002003a0070062000c011880000002a0055
:100e48009011880087e0a90091058000f0ff280034
:100e58000080600000e0a0009005880097e0a800ee
:100e680087c0a90091058000f08f2f008080600066
:100e780000302000010070009005880097c0a9008c
:100e880031e2a8003342a8000080fa000000060002
:100e98000400fa00004f780011079800c8ff070007
:100ea8000d0037000140fe0001003700000000007f
:100eb8009111800000202000008060000000e00008
:100ec800f8ff3a001e80fb00a01188001e00900069
:100ed8000000e900100798001e0090000000e000e4
:100ee800f2ff3a000000000091118000001020007d
:100ef800008060000000e000fbff320031e2a90042
:100f08000080fa00000006000400fa0010079800ac
:100f18000040eb00104798001100200000c2b30009
:100f2800dbff07001100200000c3b300d8ff070053
:100f38001100200080c7b300d5ff070030c0b30000
:100f4800004f7800150037001e00fb004200dd004e
:100f58009e0090000008de00004078006f406000ae
:100f6800104798001e409000e94f500004003400dc
:100f78001e4090007043b0001047980003003700ef
:100f88001e4090000043b000104798001e4090009b
:100f980011002000beff07001e4fe9001e40780028
:100fa8000004e000e8ff3d001100200000c2b3008b
:100fb800b7ff07000000eb00100798000080fa0058
:100fc800000006000600fa001007980021079800a4
:100fd8000040eb00104798001100200000c2b30049
:100fe800abff07001100200000c3b300a8ff0700f3
:100ff8001100200080c7b300a5ff070070c0b30030
:10100800004f78001b0037001e00fb004201dd0086
:101018001e009000ae009000820178008301e90074
:10102800030033008100d1000080d300fbff3700ac
:10103800004078006f406000104798001e40900004
:10104800e94f5000040034001e4090007043b00087
:1010580010479800030037001e4090000043b0007e
:10106800104798001e4090001100200088ff0700dc
:101078001e4fe9001e4078000004e000e2ff3d003a
:101088001100200000c2b30081ff07006000b80013
:1010980010079800210798000080fa000000060059
:1010a8000200fa00000f78000080fa000000060035
:1010b8000400fa00100798000000eb00000f780009
:1010c800060037001e0090001e0040001040780007
:1010d800110020006eff07001e0fe8001e009000a0
:1010e80005ff07009e0f5000f6ff31000080fa0050
:1010f800000006001000fa00881f780060079800ba
:101108007107980018c0b30042e12a0073f4230065
:101118006e009000fe00900005fe07000000e00051
:10112800010035000044eb000804e00040003200f4
:1011380018c0b3006011b8006e009000fe00900067
:10114800fdfd07000000e00001003d000044eb0049
:101158000804e0003600320032a6a8003286a90052
:1011680002002000031c24006e009000fe00900086
:1011780063fe070092c2250073042400aafd07003d
:1011880020079800310798002e009000be009000bc
:10119800ebfd0700000078008000eb0003fe07006d
:1011a8000001be002e009000be00900040fd070028
:1011b80018c0b3000200200003f02300defd070082
:1011c8000000e00001003d000044eb000804e000de
:1011d800060032002e009000be009000d8fd0700e7
:1011e80000007800000fe800040037002e0090008f
:1011f800be009000d2fd0700000f78001e007800a6
:10120800004078006f4060000080fb006f006000c5
:101218009231800001ff2f00810061000100700001
:101228009031880032e6a80032c6a9007500370060
:1012380018c0b30042e12a0073f423006e00900046
:10124800fe009000bcfd07000000e00001003d002a
:101258000044eb000804e0004500320018c0b30069
:1012680092c22500f30024006e009000fe0090005a
:10127800affd07000000e000010034000044eb006f
:101288000804e0003a00320032a6a9003286a9001c
:1012980092c2250073f423006e009000fe009000b7
:1012a80003fd0700020020000320240014fe0700ad
:1012b80092c22500730424005bfd070040079800d4
:1012c800510798004e009000de0090009cfd07003a
:1012d800000078008000eb00b4fd07000001be00ac
:1012e8004e009000de009000f1fc070018c0b3002b
:1012f8000200200003f023008ffd07000000e0003b
:1013080001003d000044eb000804e0000700320043
:101318004e009000de00900089fd07000000780074
:101328000000e80010079800040037004e00900005
:10133800de00900082fd0700100798001e00900054
:10134800004078006f4060000080fb006f00600084
:101358009231800001ff2f008100610001007000c0
:101368009031880032e6a80032c6a900250037006f
:1013780018c0b3006011b8006e009000fe00900025
:101388006bfd07000000e000010035000044eb00a1
:101398000804e000090032009131800000ff2f00ae
:1013a800008060009031880032a6a8003286a9002b
:1013b80032e6a80032c6a9001200370018c0b300f0
:1013c80092c22500f30024006e009000fe009000f9
:1013d80059fd07000000e00001003c000044eb005c
:1013e8000804e0000700320090318000f000b300ec
:1013f8009031880032a6a9003286a90032e6a800fa
:1014080032c6a9004f0478000080fa0000000600e8
:101418000000fa002203a90028e3a900411980006e
:1014280000ff2f0000806000b000b3004019880062
:101438002d63a9003163a90021e3a8002023a80097
:101448003da3a9003d83a9003d63a9003d43a90030
:101458003d23a9003c03a8003c23a8003de3a800c5
:101468000080fa00000006000000fa00004080003a
:101478000000e0000a003200f1198000f0cf2f00d0
:10148800008060000090a000f0198800f119800029
:1014980000c02f0001007000f01988000a00370012
:1014a800f11980000030200001007000f019880058
:1014b800f1198000f03f200080806000008021004a
:1014c80001007000f01988003d23a9003c23a90001
:1014d8000080fa00000006000000fa003c23a80083
:1014e8003d23a8000080fa00000006000c00fa0066
:1014f800881f780040079800510798000628ef00d9
:101508000828ef006000b80020079800310798000d
:101518006000b800008fbe00004080000000e000be
:1015280029003200c0e82200a1fb23002007980010
:10153800310798004e009000de0090001bfd070068
:101548002e019000be019000b7fc070002002000a9
:101558004327240056fc0700008fbe0018c0b300c4
:1015680002002000a34724001e00be00f2fc070072
:101578000000e00001003c000044eb000804e0002b
:101588000b00320002002000a34724001e00be000a
:10159800a5fc0700008fbe00e0c6b30002e8b70054
:1015a80060c4b30003e8b7000468ef0033003700f5
:1015b80000c7b30002e8b70060c4b30003e8b7008f
:1015c8000468ef002d00370060202f0041e1230060
:1015d80020079800310798004e009000de00900028
:1015e800f2fc07002e019000be0190008efc07005f
:1015f80002002000432624002dfc0700008fbe00b7
:1016080002402200439724001e00be0086fc07000b
:10161800008fbe0018c0b30002002000a3472400ba
:101628001e00be00c4fc07000000e00001003c00f2
:101638000044eb000804e0000b0032000200200028
:10164800a34724001e00be0077fc0700008fbe00e1
:10165800d0c6b30002e8b70060c4b30003e8b7001f
:101668000468ef000500370050c7b30002e8b70070
:1016780060c4b30003e8b7000468ef0018c0b30003
:101688006011b8001e00be00a9fc07000000e000c1
:10169800010034000044eb000804e00002003200be
:1016a8006000b800010037001e00be004f0478003b
:1016b8000080fa00000006002c00fa006000b80064
:1016c800008fbe00c9e2a9004fe7a8004fa7a900f4
:1016d8004f87a900713a8000f00f2f00008060004a
:1016e800703a88008000200038000700c062a80017
:1016f800c9a2a80010002000004088000a28ef00b6
:10170800c70007008a000700a800070000002000a3
:101718000100240077fe07003dff0700c06828008d
:1017280063fe07003d23a80080bb2000910007004e
:1017380080bb20008f000700007d20008d0007007f
:10174800506a28005afe0700010037000000000018
:1017580011e1a80044ff07000140fe005eff0700fa
:1017680080bb20008300070080bb200081000700a9
:10177800007d20007f000700504080000000e0004e
:10178800f2ff32000a28ef0030408000414080001c
:1017980056ff0700008fbe0021802000914078008e
:1017a80000c7b30080cf500003003200406b280010
:1017b8003ffe070002003700d06c28003cfe0700ff
:1017c8001000200000408800e1ff37000400fa0004
:1017d800100798001e009000e80f500003003a0020
:1017e8000040eb00004f7800100037009e0090008a
:1017f800401f2000808f500003003a0060c6b300ed
:10180800004f7800090037009e0090000002200079
:10181800808f500003003a0050c5b300004f780095
:101828000200370050c5b300004f78001102800055
:10183800000e20000100700010028800213a80008c
:10184800f08f2f0000806000203a88001e01fb0006
:1018580080072000a1092000337420008049780007
:101868008149780082497800120020006004200035
:101878007105200023742000804978008149780090
:10188800824978004207a80000000000103a800052
:10189800610060000000e000fcff3a0011028000d7
:1018a800f0f12f0000806000100288000080fa002c
:1018b800000006000000fa002203a90028e3a9009e
:1018c8004119800000ff2f0000806000b000b300c5
:1018d800401988002d63a9003163a90021e3a800fd
:1018e8002023a8000080fa00000006000200fa0089
:1018f8002023a80001188000010f78001e0078003e
:101908000080fa00000006000200fa00000f7800cc
:101918001e0078008000eb0024fc0700d2c02c00d9
:1019280093b4230076fc07000080fa00000006004c
:101938000000fa0005a1a90021088000f0fc2f0092
:1019480000806000200888000421a900210580008b
:10195800f0ff280080806000000025000100700072
:10196800200588008460a9009460a8000080fa001f
:10197800000006000200fa00000f780000022000b4
:1019880092ff07001e0078004400dd001008880060
:101998000021ef0005e1a8000140fe0080002000c2
:1019a8008aff07000080fa00000006000000fa0025
:1019b80031e6a9003686a800b1318000c0ff2f00ab
:1019c800008060000000a000b031880037a6a800a1
:1019d800b1318000f0f32f00008060000060a000ab
:1019e800b03188003786a8003726a9006105800035
:1019f800f08f2f00808060000060200001007000e0
:101a0800600588008640a9009640a80037c6a8004f
:101a180037e6a800c0c2a9000080fa00000006004e
:101a28000000fa001061a80081088000f0fc2f0077
:101a380000806000800888001021a9009500a80097
:101a4800400580007000b300400588008500a900ab
:101a5800b0002000700888000080fa00000006002e
:020000040000fa
:101a68000c0800000400000000000000000800004e
:101a7800060000000000000010080000020000003e
:101a8800000000000608000006000000000000003a
:041a9800000000004a
:020000040000fa
:0200000401f009
:04000000ffff0000fe
:020000040000fa
:0200000401f009
:04000800ffff0000f6
:020000040000fa
:0200000401f009
:04000c0000000000f0
:020000040000fa
:0200000401f009
:040010005300000099
:020000040000fa
:0200000401f009
:0400140040000000a8
:020000040000fa
:0200000401f009
:0400180010000000d4
:020000040000fa
:0200000401f009
:04001c00c20000001e
:020000040000fa
:0200000401f009
:0400200017000000c5
:00000001FF
